:020000041000EA
:101000004805002019100010000000009910001081
:1010100000040100000100001149124A124B00F0C7
:1010200018F8124880471249124A134B00F011F881
:101030001249134A134B00F00CF81349134A0020CD
:10104000521A02DD043A8850FCDC114880471148EE
:1010500080479B1A03DD043BC858D050FBDC704727
:10106000381200100C00002044010020FB1000107A
:101070007013001048050020480500207013001070
:1010800048050020480500204805002050050020A4
:10109000F1110010E9110010FEE7000080B588B0E2
:1010A00000AF78603960EFF31083FB60FB68BB60D2
:1010B00072B6C046BB68FB610C4B04225A630B4BF3
:1010C0007A681A62094B3A685A62084B9B6ABB619C
:1010D000FB697B617B693B613B6983F31088C04698
:1010E000C046BB691800BD4608B080BD0000034083
:1010F00080B500AFC046BD4680BD80B500AF00F0F2
:1011000005F800F01FF8C046BD4680BD80B500AFB1
:101110000B4B1B899BB20A498022520113439BB29D
:101120000B81074A4823D35A9BB2054980221201FA
:1011300013439AB24823CA52C046BD4680BDC0463A
:101140000000054080B500AF0A4BC0225A620A4B2E
:101150000A4A1A60C046084B1A688023DB05134010
:10116000F9D1044BC3225A6200F00AF8C046BD46CA
:1011700080BDC04600000140000301400001F13F76
:1011800080B500AF124B1B681B0AFF221A40114B9F
:101190001A600F4B1B68FF221A400F4B1A600D4B51
:1011A0001B68002B0ED00B4B1B681A020A4B1B68E6
:1011B000D31819000948FFF771FF03005A00084BC4
:1011C0001A6002E0064B074A1A60C046BD4680BD61
:1011D00000030140480500204C050020000024F4D5
:1011E000FC3F00200048E80180B500AFFEE70000AA
:1011F00070B500260C4D0D4C641BA410A64209D1FD
:101200000026FFF775FF0A4D0A4C641BA410A64286
:1012100005D170BDB300EB5898470136EEE7B30037
:10122000EB5898470136F2E74805002048050020B2
:081230004805002048050020DC
:101238002C48874600000000000000000000000065
:101248000000000000000000000000000000000096
:101258002548874600000000000000002348874614
:101268002348874623488746234887462348874696
:101278002348874623488746234887462348874686
:1012880023488746000000002248874622488746B0
:10129800224887462248874622488746224887466A
:1012A800224887462248874622488746224887465A
:1012B800224887462248874622488746224887464A
:1012C800224887462248874622488746224887463A
:1012D8002248874622488746000000000000000098
:1012E8002048874699100010991000109910001096
:1012F8009910001099100010991000109910001002
:1013080099100010991000109910001099100010F1
:1013180099100010991000109910001099100010E1
:1013280099100010991000109910001099100010D1
:1013380099100010991000109910001099100010C1
:1013480099100010991000109910001099100010B1
:1013580099100010991000109910001099100010A1
:0813680099100010991000100B
:0400000510001019BE
:00000001FF
